:020000040800F2
:10000000141200207D190008D1100008D310000838
:10001000D5100008D7100008D91000080000000013
:10002000000000000000000000000000DB100008DD
:10003000DD10000800000000DF100008E1100008DB
:10004000C5190008C5190008C5190008C519000818
:10005000C5190008C5190008C5190008C519000808
:10006000C5190008C5190008C5190008C5190008F8
:10007000C5190008C5190008C5190008C5190008E8
:10008000C5190008C5190008C5190008C5190008D8
:10009000C5190008C5190008C5190008C5190008C8
:1000A000C5190008C5190008C5190008C5190008B8
:1000B000C5190008C5190008C5190008C5190008A8
:1000C000C5190008C5190008C5190008C519000898
:1000D000C5190008C5190008C5190008C519000888
:1000E000C5190008C5190008C5190008C519000878
:1000F000C5190008C5190008C5190008C519000868
:10010000C5190008C5190008C5190008C519000857
:10011000C5190008C5190008C5190008C519000847
:10012000C5190008C5190008C5190008C519000837
:10013000012051E21EFF2F013600003A010050E17C
:100140002200009A020011E12300000A0E0211E3CE
:100150008111A0010830A0030130A013010251E376
:10016000000051310112A0310332A031FAFFFF3AF1
:10017000020151E3000051318110A0318330A031E0
:10018000FAFFFF3A0020A0E3010050E10100402007
:1001900003208221A10050E1A1004020A320822160
:1001A000210150E12101402023218221A10150E1C0
:1001B000A1014020A3218221000050E32332B0118D
:1001C0002112A011EFFFFF1A0200A0E11EFF2FE194
:1001D0000100A0030000A0131EFF2FE1010851E35E
:1001E0002118A0211020A0230020A033010C51E3EE
:1001F0002114A02108208222100051E32112A02105
:1002000004208222040051E303208282A1208290F4
:100210003002A0E11EFF2FE1000050E30000E013D8
:10022000590000EA000051E3FAFFFF0A03402DE9FC
:10023000BEFFFFEB0640BDE8920003E0031041E083
:100240001EFF2FE1000051E34300000A01C020E03F
:1002500000106142012051E22700000A0030B0E1A5
:1002600000306042010053E12600009A020011E1D3
:100270002800000A0E0211E38111A0010820A0034A
:100280000120A013010251E3030051310112A031FA
:100290000222A031FAFFFF3A020151E3030051317B
:1002A0008110A0318220A031FAFFFF3A0000A0E3C4
:1002B000010053E10130432002008021A10053E1FD
:1002C000A1304320A2008021210153E121314320AC
:1002D00022018021A10153E1A1314320A20180210B
:1002E000000053E32222B0112112A011EFFFFF1AE8
:1002F00000005CE3000060421EFF2FE100003CE1D3
:10030000000060421EFF2FE10000A033CC0FA001CF
:10031000010080031EFF2FE1010851E32118A021F5
:100320001020A0230020A033010C51E32114A021B0
:1003300008208222100051E32112A02104208222F1
:10034000040051E303208282A120829000005CE33C
:100350003302A0E1000060421EFF2FE1000050E3E5
:100360000201E0C30201A0B3070000EA000051E36C
:10037000F9FFFF0A03402DE9B3FFFFEB0640BDE89C
:10038000920003E0031041E01EFF2FE11EFF2FE16A
:10039000021121E2000000EA023123E230402DE99F
:1003A0008140A0E18350A0E1050034E1020030016A
:1003B00000C0941102C09511C4CAF011C5CAF01151
:1003C0008C00000AA44AA0E1A55A74E0005065B26E
:1003D000060000DA054084E0022020E0033021E03E
:1003E000000022E0011023E0022020E0033021E0A1
:1003F000360055E33040BD881EFF2F81020111E316
:100400000116A0E101C6A0E321168CE10100000A5B
:10041000000070E20010E1E2020113E30336A0E104
:1004200023368CE10100000A002072E20030E3E292
:10043000050034E16900000A014044E220E075E271
:10044000050000BA12CEA0E1320590E00010A1E252
:10045000130E90E05315B1E0060000EA205045E28B
:1004600020E08EE2010052E313CEA0E102C08C2313
:10047000530590E0C31FB1E0025101E20200005AAF
:1004800000C07CE20000F0E20010E1E2010651E36E
:100490000F00003A020651E30600003AA110B0E155
:1004A0006000B0E16CC0A0E1014084E2842AA0E1D8
:1004B000010572E36B00002A02015CE3A0C0B001F9
:1004C0000000B0E2041AA1E0051081E13040BDE86F
:1004D0001EFF2FE18CC0B0E10000B0E00110A1E0F0
:1004E000014054E201065123F2FFFF2A000031E3EC
:1004F0001430A0133430A0030010A0010000A003AA
:100500000120A0E1010852E32228A021103043225B
:10051000010C52E32224A02108304322100052E3B0
:100520002222A02104304322040052E3023043225D
:10053000A2304330A23143E0202053E2070000AA5A
:100540000C2092E2040000DA14C082E20C2062E285
:10055000110CA0E13112A0E1040000EA142082E2B3
:1005600020C062D21112A0E1301C81D11002A0D1B2
:10057000034054E0041A81A0051081A13040BDA8B9
:100580001EFF2FA10440E0E11F4054E20F0000AA2B
:100590000C4094E2060000CA144084E2202064E289
:1005A0003004A0E1110280E1311485E13040BDE862
:1005B0001EFF2FE10C4064E2202064E23002A0E143
:1005C000110480E10510A0E13040BDE81EFF2FE1DD
:1005D0003104A0E10510A0E13040BDE81EFF2FE18D
:1005E000000034E3013623E20116210201408402B7
:1005F000015045128FFFFFEAC4CAF0E1C5CAF011ED
:100600001D00000A050034E1020030010400000A68
:1006100000C094E10310A0010200A0013040BDE839
:100620001EFF2FE1030031E10010A0130000A01312
:100630003040BD181EFF2F11A4CAB0E10400001AFB
:100640008000B0E10110B1E0021181233040BDE82B
:100650001EFF2FE1014594E2011681323040BD3882
:100660001EFF2F31025101E27F1485E30F1681E353
:100670000000A0E33040BDE81EFF2FE1C4CAF0E156
:100680000310A0110200A011C5CAF0010130A01191
:100690000020A011014690E10356920103003101B0
:1006A000021781133040BDE81EFF2FE1000030E348
:1006B0000010A0031EFF2F0130402DE9014BA0E3E5
:1006C000324084E20050A0E30010A0E386FFFFEA7E
:1006D000000030E30010A0031EFF2F0130402DE981
:1006E000014BA0E3324084E2025110E2000060427C
:1006F0000010A0E37CFFFFEA8020B0E1C211A0E17E
:100700006110A0E1020EA0E1FF341212FF043313C6
:100710000E1321121EFF2F11FF24D2E31EFF2F0103
:10072000FF0433E3021781031EFF2F0130402DE940
:100730000E4DA0E3025101E20211C1E36AFFFFEA9C
:10074000012090E11EFF2F0130402DE90050A0E371
:10075000060000EA012090E11EFF2F0130402DE944
:10076000025111E20100005A000070E20010E1E2C3
:10077000014BA0E3324084E221CBB0E142FFFF0A0B
:100780000320A0E3ACC1B0E103208212ACC1B0E110
:1007900003208212AC2182E0203062E210C3A0E18B
:1007A0003002A0E1110380E13112A0E1024084E0B7
:1007B00035FFFFEA70402DE9FFC0A0E307CC8CE3D2
:1007C000214A1CE0235A1C100C0034110C00351176
:1007D0007500000B054084E0036021E08C1AC1E144
:1007E0008C3AC3E1015690E103569211011681E360
:1007F000013683E31D00000A90C28EE00050A0E3A2
:1008000091E2A5E0022106E290E3A5E00060A0E30A
:100810009153A6E000003CE301E08E13FF4044E268
:10082000020C56E3034CC4E20200002A8EE0B0E161
:100830000550B5E00660A6E0861582E1A51A81E1C3
:100840008505A0E1AE0A80E18EE5A0E1FDC054E29D
:10085000070C5C831100008A02015EE3A0E0B00196
:100860000000B0E2041AA1E07040BDE81EFF2FE1D5
:10087000026106E2011086E1020080E1031021E03E
:10088000AC4054E00C5074C0041A81C17040BDC823
:100890001EFF2FC1011681E300E0A0E3014054E2F6
:1008A0005D0000CA360074E30000A0D3021101D23B
:1008B0007040BDD81EFF2FD1004064E2204054E2BA
:1008C0001A0000AA0C4094E20C0000CA144084E212
:1008D000205064E21035A0E13004A0E1110580E170
:1008E000022101E20211C1E3A30F90E03114A2E062
:1008F00083E09EE1A30FC0017040BDE81EFF2FE121
:100900000C4064E2205064E21034A0E13005A0E124
:10091000110480E1021101E2A30F90E00010A1E2B6
:1009200083E09EE1A30FC0017040BDE81EFF2FE1F0
:10093000205064E210E58EE13034A0E1113583E10E
:100940003104A0E1021101E23104C0E1A30F80E013
:1009500083E09EE1A30FC0017040BDE81EFF2FE1C0
:10096000000034E30800001A026101E28000B0E1F7
:100970000110A1E0010611E301404402FAFFFF0A61
:10098000061081E1000035E31EFF2F11026103E232
:100990008220B0E10330A3E0010613E301504502D9
:1009A000FAFFFF0A063083E11EFF2FE10C0034E15D
:1009B000235A0CE00C0035110700000A816090E119
:1009C00083609211E5FFFF1A031021E0021101E29A
:1009D0000000A0E37040BDE81EFF2FE1816090E1C0
:1009E0000200A0010310A001836092111000000A10
:1009F0000C0034E10100001A016690E10C00001ABD
:100A00000C0035E10300001A036692E10200A01118
:100A10000310A0110600001A031021E0021101E2E8
:100A20007F1481E30F1681E30000A0E37040BDE86E
:100A30001EFF2FE17F1481E33E1781E37040BDE884
:100A40001EFF2FE170402DE9FFC0A0E307CC8CE32F
:100A5000214A1CE0235A1C100C0034110C003511E3
:100A60005E00000B054044E003E021E0035692E104
:100A70000116A0E14C00000A0336A0E10152A0E3F8
:100A8000233285E1223C83E10224A0E1215285E169
:100A9000205C85E10064A0E102110EE2030055E153
:100AA00002005601FD40A4E2034C84E20100002A4A
:100AB000A330B0E16220A0E1026056E00350C5E03F
:100AC000A330B0E16220A0E10106A0E302C7A0E3E9
:100AD00002E056E003E0D5E0026046200E50A0217F
:100AE0000C008021A330B0E16220A0E102E056E0DA
:100AF00003E0D5E0026046200E50A021AC0080212A
:100B0000A330B0E16220A0E102E056E003E0D5E0CE
:100B1000026046200E50A0212C018021A330B0E1BC
:100B20006220A0E102E056E003E0D5E0026046204A
:100B30000E50A021AC01802106E095E10D00000AD5
:100B40000552A0E1265E85E10662A0E18331A0E1C5
:100B5000A23E83E18221A0E12CC2B0E1DBFFFF1ABB
:100B6000010611E30600001A001081E10000A0E375
:100B700002C1A0E3D5FFFFEA010611E300108101E5
:100B80000000A003FDC054E2070C5C8343FFFF8A12
:100B900003C055E002C05600A0C0B0010000B0E2A2
:100BA000041AA1E07040BDE81EFF2FE102E10EE251
:100BB00021168EE1AC4094E00C5074C0041A81C13F
:100BC0007040BDC81EFF2FC1011681E300E0A0E305
:100BD000014054E231FFFFEA06E085E12FFFFFEA22
:100BE000235A0CE00C0034E10C00350190FFFF0AA1
:100BF0000C0034E10600001A014690E18CFFFF1A58
:100C00000C0035E183FFFF1A0200A0E10310A0E110
:100C100087FFFFEA0C0035E10400001A035692E159
:100C200068FFFF0A0200A0E10310A0E180FFFFEAD5
:100C3000816090E18360921148FFFF1A814090E14A
:100C400074FFFF1A835092E15EFFFF1A78FFFFEAFC
:100C500000C0E0E3020000EA01C0A0E3000000EAF7
:100C600001C0A0E304C02DE581C0A0E1CCCAF0E141
:100C700083C0A0E1CCCAF0110E00000A04D08DE2BE
:100C800081C090E183C09201030031110200300164
:100C90000000A0031EFF2F01000070E3030031E1FC
:100CA0000300515102005001C30FA021C30FE031D6
:100CB000010080E31EFF2FE181C0A0E1CCCAF0E17A
:100CC0000100001A01C690E10400001A83C0A0E1EF
:100CD000CCCAF0E1E8FFFF1A03C692E1E6FFFF0A83
:100CE00004009DE41EFF2FE100C0A0E10200A0E18E
:100CF0000C20A0E101C0A0E10310A0E10C30A0E1B4
:100D0000FFFFFFEA01402DE9D4FFFFEB000050E3B5
:100D1000000070430140BDE81EFF2FE108E02DE513
:100D2000F7FFFFEB0100A0030000A01308E09DE423
:100D30001EFF2FE108E02DE5F1FFFFEB0100A033DE
:100D40000000A02308E09DE41EFF2FE108E02DE550
:100D5000EBFFFFEB0100A0930000A08308E09DE4FF
:100D60001EFF2FE108E02DE5DEFFFFEB0100A09361
:100D70000000A08308E09DE41EFF2FE108E02DE5C0
:100D8000D8FFFFEB0100A0330000A02308E09DE4A2
:100D90001EFF2FE181C0A0E1CCCAF0E10100001AE2
:100DA00001C690E10600001A83C0A0E1CCCAF0E1C0
:100DB0000100001A03C692E10100001A0000A0E33E
:100DC0001EFF2FE10100A0E31EFF2FE18120A0E123
:100DD000022692E20C00002A0900005A3E3EE0E39F
:100DE000C22A53E00A00009A8135A0E1023183E370
:100DF000A03A83E1020111E33302A0E10000601296
:100E00001EFF2FE10000A0E31EFF2FE1010690E18D
:100E10000200001A020111E20201E0031EFF2FE1AD
:100E20000000A0E31EFF2FE118009FE518309FE5AA
:100E3000000053E11EFF2F0110309FE5000053E337
:100E40001EFF2F0113FF2FE1DC060020DC0600202F
:100E50000000000024009FE524309FE5003043E0BF
:100E6000A31FA0E1431181E0C110B0E11EFF2F01DB
:100E700010309FE5000053E31EFF2F0113FF2FE109
:100E8000DC060020DC0600200000000010402DE9F8
:100E90002C409FE50030D4E5000053E30600001A23
:100EA000E0FFFFEB1C309FE5000053E318009F15A7
:100EB0000000A0110130A0E30030C4E51040BDE8FF
:100EC0001EFF2FE1DC0600200000000074B20008C5
:100ED00020309FE5000053E30500000A10402DE993
:100EE00014109FE514009FE50000A0E11040BDE84C
:100EF000D7FFFFEAD6FFFFEA00000000E00600206F
:100F000074B2000838B50446094B33F8100000F0FD
:100F1000EBFB084B53F82450074B53F824402B4667
:100F200003221021204600F0E5FA656138BD00BFBC
:100F3000F8B2000820B3000830B30008034B53F8A0
:100F40002030034A52F820201A61704730B300085D
:100F500020B30008034B53F82030034A52F82020F6
:100F60005A61704730B3000820B3000838B5094B08
:100F700053F82040084B53F820502946204600F0F3
:100F80000FFBC0F10102D2B22946204600F003FB5C
:100F900038BD00BF30B3000820B3000838B50446A0
:100FA0000D46174B33F8100000F09EFB4FF4C06065
:100FB00000F09AFB134B53F824300322042112480B
:100FC00050F8240000F096FA012D00D038BD002220
:100FD00002210E4B185D00F02FFB0D4B195D0D4BE0
:100FE000185D00F0E5FA0C4B53F824400122002173
:100FF000204600F01FFA204600F076FAE6E700BF30
:10100000D8B20008E0B20008ECB20008C0B2000894
:10101000C4B20008C8B20008CCB2000808B5044B3E
:1010200053F82010034B53F8200000F0B9FA08BD24
:10103000E0B20008ECB2000870B504461E4B9842BE
:1010400035D0A3F57443984233D000251B4B33F8B9
:10105000150000F049FB1A4B33F8150000F044FB73
:10106000184B53F82560184B53F8253003221821EC
:10107000304600F03FFA154B53F825300322042187
:10108000304600F037FA204600F0DAFB4FF4E13149
:10109000204600F01BFC0421204600F064FC0821DF
:1010A000204600F056FC204600F04EFC70BD0025A6
:1010B000CCE70125CAE700BF0038014000B30008B3
:1010C0001CB3000804B3000814B300080CB30008F4
:1010D0007047FEE7FEE7FEE7FEE7704770477047A0
:1010E00008B500F003F800F093F808BD08B50C4B04
:1010F0001B6883B10A4B1B68B3F5FA7F07D2002047
:10110000FFF71CFF064A1368013B136008BD00206F
:10111000FFF720FFF6E7024B4FF47A721A60F5E70B
:10112000F806002008B500F049F80020FFF7EAFEB5
:101130000120FFF7E7FE0220FFF7E4FE1A48FFF761
:101140007BFF00210846FFF729FF002000F0F4FA9A
:101150000146164800F0A2FD012000F0EDFA01461C
:10116000134800F09BFD022000F0E6FA014611480A
:1011700000F094FD032000F0DFFA01460E4800F075
:101180008DFD0020FFF74AFF0028FAD10120FFF76C
:10119000D5FE4FF4FA7000F031F80120FFF7DAFEC7
:1011A0000220FFF7E3FEECE70038014040B30008FF
:1011B00050B3000860B3000870B300080C4B1B6804
:1011C0000C4AA2FB03239B09013BB3F1807F0DD2A4
:1011D0004FF0E0225361084BF02183F823100021E7
:1011E00091610720106183F823107047FEE700BF6C
:1011F00004000020D34D621000ED00E0034B1860A6
:10120000024B1B68002BFBD1704700BFFC0600207F
:10121000034B1B681BB1024A1368013B1360704704
:10122000FC0600200346094A10680344084A93421A
:1012300005D3084A934205D8044A136070474FF01B
:10124000FF3070474FF0FF30704700BF00000020B4
:10125000140A0020140A002001207047024B1622B5
:101260001A604FF0FF3070473C08002008B54FF07F
:10127000FF31FFF7F3FFFEE770B50C461646002579
:1012800004E014F8010BAFF300800135B542F8DB40
:10129000304670BD4FF0FF3070474FF400534B6045
:1012A00000207047012070470020704770B50C4641
:1012B0001646002506E0AFF30080214601F8010B39
:1012C00001350C46B542F6DB304670BD334A136833
:1012D00043F48033136000230133304A126812F460
:1012E000003F03D14FF6FF729342F5D12B4B1B68A1
:1012F00013F4003F00D1FEE7284BDA6942F0805238
:10130000DA6127490A6842F440420A605A685A6022
:101310005A685A605A6842F480625A605A6822F4E5
:1013200040325A605A6842F440325A605A6822F099
:10133000904222F470125A605A6842F0036242F4FA
:1013400080225A601A6842F080721A60134B1B6840
:1013500013F0007FFAD0124A136843F4803313600D
:101360000F4B5B6813F4803FFAD00D4A136843F4C7
:10137000003313600A4B5B6813F4003FFAD0074B4D
:101380005A6822F003025A605A6842F002025A6018
:10139000024B5B6813F0080FFAD070470010024050
:1013A0000070004008B5FFF791FF08BD00B583B09D
:1013B0001F4A136843F0010313601D4B1B6813F0B1
:1013C000020FFAD01A4A536843F080035360002397
:1013D000019302E0019B01330193019B4F2BF9D94B
:1013E000134A536843F0900353600023019302E0D3
:1013F000019B01330193019B4F2BF9D90C4B5A6888
:1014000022F003025A601A6822F0847222F48032B9
:101410001A604FF41F029A601A6822F480221A6040
:1014200000225A60DA62FFF7BDFF03B05DF804FBEB
:101430000010024010B42B4BD3F800446FEA000CAC
:1014400024EA0004C3F80044D3F8044424EA000466
:10145000C3F80444D3F8084424EA0004C3F8084459
:10146000D3F80C4424EA0004C3F80C4441B1012928
:101470000CD11C49D1F804340343C1F8043405E00D
:101480001849D1F800340343C1F80034012A10D0C0
:10149000022A1BD05AB9134BD3F808240243C3F8CD
:1014A0000824D3F80C240CEA0202C3F80C2410BC64
:1014B00070470C4AD2F808340CEA0303C2F8083427
:1014C000D2F80C340343C2F80C34F0E7054BD3F8E0
:1014D00008240243C3F80824D3F80C240243C3F8B9
:1014E0000C24E4E700000140014BC3F814047047EA
:1014F0000000014070B501F00F0E11F0100F03D085
:10150000042A03D04EEA020E002209E04EF0030E38
:10151000C26B1A43C263F7E744610560013292B2BD
:10152000072A14D8012494401C40F7D0066895007F
:101530004FF00F0C0CFA05FC26EA0C060EFA05F526
:1015400035432829E8D04829E7D10461E5E7082296
:1015500003E044614560013292B20F2A1AD84FF07D
:10156000010C0CFA02FC1CEA0304F4D04568A2F159
:10157000080C4FEA8C0C0F2606FA0CF625EA060535
:101580000EFA0CFC4CEA05052829E2D04829E1D1E5
:101590000461DFE770BD0AB10161704741617047C6
:1015A00083680B4201D00120704700207047000083
:1015B00010B401F003039B000F229A4003290BD8BB
:1015C00017498C6824EA02028A608A6800FA03F3E9
:1015D00013438B6010BC704707290AD81049CC68A8
:1015E00024EA0202CA60CA6800FA03F31343CB601C
:1015F000F0E70B290AD80A490C6924EA02020A61B9
:101600000A6900FA03F313430B61E3E704494C69E9
:1016100024EA02024A614A69984002434A61D9E7D2
:101620000000014040F0BF6040F40030014BD86042
:10163000704700BF00ED00E070B505460E46144649
:10164000274BDB6803F4E063B3F5E06F25D0244B50
:10165000DB6803F4E063B3F5C06F38D0204BDB6880
:1016600003F4E063B3F5A06F34D01D4BDB6803F4E3
:10167000E063B3F5806F30D0194BDB6803F4E063AF
:10168000B3F5407F02D10023042208E04FF4A060AC
:10169000FFF7C8FF02231A4601E004230022C2F12B
:1016A00004029640C3F104030F2222FA03F31C4004
:1016B00034432401E4B20B4A531983F8004305F084
:1016C0001F016D0901238B4042F8253070BD0323B3
:1016D0000122E4E702231A46E1E701230322DEE7C1
:1016E00000ED00E000E100E0830903F1804303F531
:1016F00004331A6800F01F00012181400A431A6078
:101700007047830903F1804303F504331A6800F03E
:101710001F00012181400A431A607047830903F1C9
:10172000804303F504331A6800F01F000121814053
:1017300022EA01021A60704710B588B084463B4C1B
:1017400094E80F000DF1200E0EE90F0002AB1034EB
:1017500094E8030083E803006B4683E80300344BFE
:101760005B68C3F38103022B23D0324830494B68B6
:10177000C3F3031320336B4413F8102C20FA02F246
:101780004B68C3F3022320336B4413F8183C22FA4E
:1017900003F44B68C3F3C22320336B4413F8203C9B
:1017A00022FA03F3BCF1030F37D8DFE80CF0393825
:1017B0003B3D1F4B5B6813F4803F0ED01C4BDB6A34
:1017C00013F0804F07D11B4A194B5B6813F4003F9D
:1017D00004D0520802E0184AF6E7184A144B586839
:1017E000C0F383405B6813F0006F01D040F010003D
:1017F0000F4B5B6813F0804F09D040F02000A0F140
:101800000F032F2B07D8013002FB00F0AEE70E28A4
:10181000F5D80230F8E73F20F6E7002000E0104658
:1018200008B010BD2046FBE71846F9E7A8B200084B
:101830000010024000127A00006CDC0200093D003A
:1018400008B5204B98422AD00FD91F4B98422FD071
:1018500003F56843984207D140F20E30FFF751FF7D
:1018600040F20E30FFF75AFF08BDA3F5006398421F
:101870000CD003F580639842F6D140F21240FFF796
:1018800040FF40F21240FFF749FFEDE740F2114000
:10189000FFF737FF40F21140FFF740FFE4E740F267
:1018A0001340FFF72EFF40F21340FFF737FFDBE74F
:1018B00040F21440FFF725FF40F21440FFF72EFFDF
:1018C000D2E700BF004C00400050004038B504464D
:1018D0000D461B4B984226D011D91A4B984227D05F
:1018E00003F56843984228D10320FFF725FF0346FC
:1018F00003EB5503B3FBF5F39BB2A36038BDA3F52F
:10190000006398420AD003F58063984204D1022014
:10191000FFF712FF0346EBE70023E9E70220FFF79A
:101920000BFF0346E4E70220FFF706FF0346DFE76D
:101930000220FFF701FF0346DAE70023D8E700BFE4
:10194000004C004000500040C36843F40053C360A3
:101950007047C36823F00803C360C36801F008013F
:101960000B43C3607047C36823F00403C360C368BC
:1019700001F004010B43C36070470000002103E045
:101980000B4B5B58435004310A480B4B42189A42A8
:10199000F6D30A4A02E0002342F8043B084B9A427D
:1019A000F9D3FFF703FD00F009FBFFF7BBFB70471E
:1019B00078B7000800000020DC060020DC060020CC
:1019C000140A0020FEE7000010402DE910209FE5DA
:1019D00010109FE510009FE5910000EB1040BDE85E
:1019E0001EFF2FE108000020985A00081800002070
:1019F00040309FE5041090E5030051E110402DE9CF
:101A00000040A0E12310001B081094E528309FE55A
:101A1000030051E10400A0111E10001B0C1094E5FE
:101A200018309FE5030051E10400A0111910001BBC
:101A30001040BDE81EFF2FE10007002068070020CE
:101A4000D0070020F0472DE90050A0E30430A0E3C8
:101A500014419FE514219FE514119FE514919FE522
:101A600014819FE514719FE514619FE5001082E5E4
:101A70005C0084E20510A0E10820A0E30C3084E5BE
:101A8000005084E5045084E5085084E5645084E502
:101A9000105084E5145084E5185084E5C20000EB32
:101AA000580084E21C4084E5209084E5248084E58D
:101AB000287084E52C6084E5630100EBC4309FE569
:101AC0000510A0E10820A0E3C40084E2743084E59E
:101AD000685084E56C5084E5705084E5CC5084E512
:101AE000785084E57C5084E5805084E5AE0000EBBE
:101AF000683084E2C00084E2843084E5889084E524
:101B00008C8084E5907084E5946084E54E0100EB60
:101B100074309FE50510A0E10820A0E34B0F84E29C
:101B2000DC3084E5D05084E5D45084E5D85084E599
:101B3000345184E5E05084E5E45084E5E85084E5E0
:101B4000990000EBD03084E24A0F84E2F09084E503
:101B5000F48084E5F87084E5FC6084E5EC3084E58D
:101B6000390100EBF047BDE81EFF2FE10007002020
:101B700038080020C8190008D81C00080C1D0008EF
:101B8000681D0008981D00080900010012000200ED
:101B900010402DE90040A0E148009FE52C0100EB3A
:101BA000343094E5000053E30500001A38309FE517
:101BB000003093E534209FE5000053E3342084E5B2
:101BC0000300000A1C009FE5220100EB1040BDE865
:101BD0001EFF2FE19AFFFFEB08009FE51D0100EBC0
:101BE0001040BDE81EFF2FE1480800203808002003
:101BF000F019000810402DE908009FE5140100EBE2
:101C00001040BDE81EFF2FE14808002010402DE9DC
:101C100008009FE50F0100EB1040BDE81EFF2FE11B
:101C200048080020F0472DE90090A0E30080A0E1E3
:101C30000170A0E10260A0E1045096E5015055E278
:101C4000084096E50E00004ABC30D4E1010053E3A1
:101C50000700009AFE30D4E1010073E30400000A9B
:101C60000410A0E10800A0E10FE0A0E117FF2FE1C0
:101C7000009089E1015045E2010075E3684084E28B
:101C8000F0FFFF1A006096E5000056E3E9FFFF1A37
:101C90000900A0E1F047BDE81EFF2FE10F002DE98C
:101CA00004E02DE528209FE5000092E50CD04DE2F0
:101CB00014308DE210209DE5081090E504308DE58C
:101CC000EF0300EB0CD08DE204E09DE410D08DE238
:101CD0001EFF2FE11400002010402DE90140A0E17B
:101CE000FE10D1E1900000EB000050E3503094A5CD
:101CF000BC30D4B1003083A0013AC3B3503084A5C6
:101D0000BC30C4B11040BDE81EFF2FE1F0412DE909
:101D10000140A0E1FC10D1E1010C11E30050A0E171
:101D20000260A0E10370A0E10800001A011AC1E3FB
:101D3000BC10C4E10730A0E10620A0E10500A0E14D
:101D4000FE10D4E18A0000EBF041BDE81EFF2FE158
:101D5000FE10D4E10230A0E30020A0E3600000EB1D
:101D6000FC10D4E1F0FFFFEA10402DE90140A0E1B2
:101D7000FE10D1E15A0000EBFC30D4E1010070E329
:101D8000013AC303013A831350008415BC30C4E107
:101D90001040BDE81EFF2FE110402DE9FE10D1E1FB
:101DA000400000EB1040BDE81EFF2FE1030010E3F0
:101DB00030402DE93600000A000052E3013042E2D3
:101DC0002F00000A00E0A0E1FF2001E2010000EA8C
:101DD000013053E22A00003A0120CEE403001EE362
:101DE000FAFFFF1A030053E31E00009AFFC001E24E
:101DF0000CC48CE00F0053E30CC88CE02700009A61
:101E0000102043E20F40C2E320508EE2045085E0F0
:101E10002242A0E110208EE210C002E50CC002E5D3
:101E200008C002E504C002E5102082E2050052E18C
:101E3000F8FFFF1A012084E20C0013E302228EE077
:101E40000F3003E21000000A04E043E203E0CEE3B7
:101E500004E08EE20EE082E004C082E402005EE173
:101E6000FCFFFF1A033003E2000053E3FF100112EE
:101E700003308E100200000A0110CEE403005EE180
:101E8000FCFFFF1A3040BDE81EFF2FE102E0A0E199
:101E9000F4FFFFEA00E0A0E10230A0E1D0FFFFEA9A
:101EA0000E20A0E1E7FFFFEA0020A0E370402DE94B
:101EB00028509FE50040A0E10100A0E1002085E559
:101EC000F3FCFFFA010070E30200001A003095E510
:101ED000000053E3003084157040BDE81EFF2FE181
:101EE0003C08002070402DE901E0A0E10210A0E1D3
:101EF0000020A0E32C509FE50040A0E1002085E5F4
:101F00000E00A0E10320A0E1E6FCFFFA010070E36F
:101F10000200001A003095E5000053E300308415FC
:101F20007040BDE81EFF2FE13C08002070402DE905
:101F300001E0A0E10210A0E10020A0E32C509FE509
:101F40000040A0E1002085E50E00A0E10320A0E113
:101F5000D5FCFFFA010070E30200001A003095E59D
:101F6000000053E3003084157040BDE81EFF2FE1F0
:101F70003C08002070402DE901E0A0E10210A0E142
:101F80000020A0E32C509FE50040A0E1002085E563
:101F90000E00A0E10320A0E1B6FCFFFA010070E30F
:101FA0000200001A003095E5000053E3003084156C
:101FB0007040BDE81EFF2FE13C08002070402DE975
:101FC00074309FE574509FE5050053E1056043E0E0
:101FD0000800000A0040A0E34661A0E1045045E289
:101FE0000430B5E5014084E20FE0A0E113FF2FE1EA
:101FF000040056E1F9FFFF8A9D2400EB40509FE565
:1020000040309FE5056043E0050053E14661A0E1F3
:102010000700000A0040A0E3045045E20430B5E5A3
:10202000014084E20FE0A0E113FF2FE1040056E13C
:10203000F9FFFF8A7040BDE81EFF2FE16CB7000872
:102040006CB700086CB7000874B700081EFF2FE1DA
:102050001EFF2FE11EFF2FE11EFF2FE118309FE52D
:10206000000053E31EFF2F0110402DE90C009FE5F7
:10207000030000EB1040BDE81EFF2FE10000000050
:10208000346700080030A0E310402DE90010A0E103
:102090000320A0E10300A0E1841200EB1040BDE8A2
:1020A0001EFF2FE1F0412DE90060A0E10800A0E350
:1020B0000150A0E1AF1100EB0040A0E1E8809FE5F6
:1020C0000600A0E1E20200EB083098E5047093E519
:1020D0000370C7E3110047E2050040E00410A0E1EF
:1020E000040080E011F8FFEB015040E2940505E0A8
:1020F000050054E1060000CA0010A0E30600A0E1BC
:102100007A1100EB083098E5073083E0030050E1D6
:102110000400000A0600A0E1D30200EB0000A0E3E7
:10212000F041BDE81EFF2FE10600A0E1001065E2CE
:102130006E1100EB010070E30C00000A083098E516
:1021400068209FE5057047E0017087E3047083E530
:10215000003092E50600A0E1053043E0003082E562
:10216000C10200EB0100A0E3F041BDE81EFF2FE13A
:102170000010A0E30600A0E15C1100EB082098E548
:10218000023040E00F0053E3E1FFFFDA013083E368
:10219000043082E518309FE5003093E50C109FE590
:1021A000030040E0000081E5D9FFFFEA680100205C
:1021B000500800205C01002070402DE9004051E2F1
:1021C0003200000A0050A0E1A10200EBBC229FE512
:1021D000040014E5083092E508C044E20110C0E3B1
:1021E00001E08CE00E0053E104309EE50330C3E3D0
:1021F0006400000A010010E304308EE503008EE065
:102200002400001A084014E504C04CE0041081E0EA
:1022100008409CE5040090E5086082E2060054E175
:10222000010000E24900000A000050E30C009CE5B8
:102230000C0084E5084080E56800000A013081E375
:1022400004308CE500108EE5020C51E31900002AE1
:1022500001E0A0E3A102A0E1A131A0E1041092E518
:10226000013083E21E1081E1041082E5830192E7D0
:10227000831182E0081041E20C108CE508008CE527
:1022800083C182E70CC080E50500A0E1760200EB87
:102290007040BDE81EFF2FE1040090E5010010E34F
:1022A0001E00000A013081E3020C51E3043004E512
:1022B00000108EE5E5FFFF3A0A0C51E3A134A0E1DE
:1022C0004800002A2133A0E1390083E238E083E2AC
:1022D0008001A0E1003092E7000082E0080040E2C7
:1022E000030050E10300001A4B0000EA083093E5B8
:1022F000030050E10300000A042093E50320C2E339
:10230000010052E1F8FFFF8A0C0093E50C008CE518
:1023100008308CE508C080E50CC083E5D9FFFFEAF2
:10232000031081E0086082E208309EE5060053E178
:102330003F00000A0C009EE50C0083E5083080E5B4
:10234000013081E304308CE501108CE7BDFFFFEA2A
:10235000000050E30130811304308C1500108E15FD
:10236000C8FFFF1A013083E008108EE2060091E8F2
:102370000C2081E5081082E5012083E304208CE530
:1023800003308CE7BFFFFFEA010010E3033081E078
:102390000600001A081014E501C04CE008008CE2A9
:1023A000013083E0030090E80C1080E5080081E52F
:1023B000011083E304108CE5D4109FE508C082E58A
:1023C000002091E5030052E1AEFFFF8AC4309FE593
:1023D0000500A0E1001093E531FFFFEBA9FFFFEA44
:1023E000031081E0CFFFFFEA140053E30600009AD8
:1023F000540053E31500008A2136A0E16F0083E208
:102400006EE083E28001A0E1B1FFFFEA5C0083E2BD
:102410005BE083E28001A0E1ADFFFFEA0140A0E3C1
:10242000041092E54EE1A0E1141E81E1041082E562
:10243000B5FFFFEA013081E314C082E510C082E5F8
:1024400048008CE90C608CE501108CE78DFFFFEAF9
:10245000550F53E30400008AA137A0E1780083E21E
:1024600077E083E28001A0E199FFFFEA28009FE581
:10247000000053E12139A0917D008392FE0FA083DB
:102480007EE0A0837CE083928001A09190FFFFEA30
:102490006801002060010020800800205405000031
:1024A000F04F2DE90B3081E2160053E30070A0E1FC
:1024B0000CD04DE21C00008A100051E38100008A1C
:1024C000E30100EB1050A0E31830A0E30200A0E30A
:1024D0005C679FE5033086E0044093E5082043E213
:1024E000020054E11101000A043094E50C2094E547
:1024F0000330C3E3081094E5033084E00C2081E549
:10250000081082E5042093E5012082E30700A0E1A2
:10251000042083E5D40100EB084084E20400A0E13C
:102520000CD08DE2F04FBDE81EFF2FE10750C3E352
:10253000050051E10010A0930110A083A31F91E1B9
:102540006000001AC20100EB7E0F55E33B01003A28
:10255000A534B0E15F00000A040053E31301008AD0
:102560002533A0E1390083E238C083E28011A0E185
:10257000BC669FE5011086E0044091E5081041E249
:10258000040051E10600001A0B0000EA000052E3CB
:102590000C2094E5D6FFFFAA020051E10600000AD4
:1025A0000240A0E1043094E50330C3E3052043E09A
:1025B0000F0052E3F4FFFFDA0C00A0E1104096E5B3
:1025C00070869FE5080054E104E096051800000AB3
:1025D000041094E50310C1E3053041E00F0053E31C
:1025E000210100CA000053E3108086E5148086E5CF
:1025F000150100AA020C51E304E096E5D000002A80
:102600000120A0E3A131A0E1023083E0A112A0E10A
:1026100012E18EE1831196E7832186E0082042E2F1
:10262000081084E50C2084E504E086E5834186E714
:102630000C4081E501C0A0E34031A0E11CC3A0E152
:102640000E005CE12700008A0E001CE10800001A61
:102650008CC0A0E10300C0E30E001CE1040080E296
:102660000300001A8CC0A0E10E001CE1040080E20F
:10267000FBFFFF0A80A186E00AE0A0E10090A0E154
:102680000C309EE5080000EA042093E50320C2E335
:10269000051042E00F0051E30340A0E10C3093E548
:1026A000CB0000CA000051E3DA0000AA03005EE19B
:1026B000F4FFFF1A019089E2030019E308E08EE2BB
:1026C000EEFFFF1A030100EA0C30A0E3003087E5BB
:1026D0000040A0E390FFFFEA021CA0E34000A0E35B
:1026E0003FC0A0E3A1FFFFEA084096E5049094E50F
:1026F0000390C9E3050059E10020A0230120A03385
:10270000053049E00F0053E3012082D3000052E37B
:102710007900000A20359FE50800A0E3008093E5DA
:10272000093084E000308DE5121000EB0C259FE5A8
:10273000003092E5108088E2010073E3058088E0B4
:102740000180481200808810003060120380081059
:1027500000B0A0E10810A0E10700A0E1E30F00EB4A
:10276000010070E300A0A0E1D0249FE55700000A1B
:10277000093084E0000053E13E00009A060054E175
:102780005200001AB8349FE500C093E50CC088E001
:1027900000C083E501004BE2001092E5010071E307
:1027A0000920841002204A100C20821000A082050B
:1027B0000020831507201AE20C008DE8DE00000AD5
:1027C000082062E202A08AE008808AE0001008E0A7
:1027D00002208BE0012042E000B002E00B10A0E1FB
:1027E0000700A0E1C10F00EB010070E304309DE59C
:1027F000FA00000A0A0040E00B8080E0001093E538
:10280000018088E301108BE0060054E108A086E512
:10281000001083E504808AE52400000A0F0059E3D4
:102820000130A09304308A95BB00009A05C0A0E354
:10283000040094E50C2049E20720C2E3010000E215
:10284000020080E10F0052E3022084E0040084E5EE
:1028500004C082E508C082E51400009A081084E2F2
:102860000700A0E100308DE552FEFFEB00309DE552
:10287000001093E50D0000EAC4339FE5001093E5D6
:10288000011088E001C0A0E1001083E501004BE2E7
:10289000C0FFFF1A09E084E000001EE1BDFFFF1A3F
:1028A000082096E5083089E0013083E3043082E5B2
:1028B00090339FE5002093E5010052E1001083353D
:1028C00084339FE5002093E5010052E10010833539
:1028D000084096E5043094E50330C3E3030055E176
:1028E0000020A0930120A083053043E00F0053E3B4
:1028F000012082D3000052E38700001A052084E003
:10290000013083E3015085E3045084E50700A0E132
:10291000082086E5084084E2043082E5D20000EB1E
:102920000400A0E10CD08DE2F04FBDE81EFF2FE1C6
:102930000C4093E5040053E1020080021EFFFF0AF1
:10294000E8FEFFEA0A0C51E3A134A0E15400003A8A
:10295000140053E38400008A5C2083E28221A0E11A
:102960005B3083E202C096E7022086E0082042E264
:102970000C0052E10300001A6A0000EA08C09CE55E
:102980000C0052E10300000A04309CE50330C3E36D
:10299000010053E1F8FFFF8A0C209CE50C2084E540
:1029A00008C084E5084082E50C408CE520FFFFEA82
:1029B000140053E33F00009A540053E37100008A6F
:1029C0002536A0E16F0083E26EC083E28011A0E1B2
:1029D000E6FEFFEA08E094E505C084E0015085E3E7
:1029E000045084E50C308EE508E083E5013081E396
:1029F00010C086E514C086E50700A0E10C808CE5D8
:102A000008808CE504308CE5021084E7960000EB2A
:102A1000084084E2C0FEFFEA022084E0041092E550
:102A2000011081E3041082E50820B4E50700A0E16D
:102A30000C3082E5082083E58B0000EBB6FEFFEA50
:102A4000A501A0E1083085E2A0FEFFEA011084E0C4
:102A5000043091E5013083E30700A0E1043081E513
:102A6000810000EB084084E2ABFEFFEA052084E031
:102A700001C083E3015085E3045084E50700A0E131
:102A8000102086E5142086E50C8082E5088082E52A
:102A900004C082E5013084E7730000EB084084E263
:102AA0009DFEFFEA2133A0E1392083E28221A0E1EB
:102AB000383083E2AAFFFFEA5C0083E25BC083E276
:102AC0008011A0E1A9FEFFEA08301AE40A0053E1F0
:102AD000010040E25400001A030010E3F9FFFF1A5E
:102AE000043096E50C30C3E1043086E58CC0A0E1EB
:102AF00001204CE2030052E1FAFEFF2A03001CE130
:102B00000300001A8CC0A0E103001CE1049089E2DC
:102B1000FBFFFF0A0900A0E1D5FEFFEA0700A0E1E4
:102B2000510000EBE9FEFFEA0110A0E34331A0E110
:102B300011E38EE104E086E597FFFFEA08208AE0D2
:102B4000002002E002B04BE000B00BE00B10A0E16F
:102B50000700A0E1E50E00EB010070E304309DE505
:102B600023FFFF1A00B09DE523FFFFEA540053E363
:102B70000B00008A2136A0E16F2083E28221A0E1D0
:102B80006E3083E276FFFFEA550F53E30B00008AB5
:102B9000A537A0E1780083E277C083E28011A0E14D
:102BA00072FEFFEA550F53E31200008AA137A0E13D
:102BB000782083E28221A0E1773083E268FFFFEA98
:102BC00088209FE5020053E11300008A2539A0E127
:102BD0007D0083E27CC083E28011A0E163FEFFEA16
:102BE00000209DE5082042E2028088E000B0A0E3DA
:102BF0000A8048E000FFFFEA50209FE5020053E111
:102C00002139A0917D208392FE2FA0837E30A08366
:102C10007C3083928221A09151FFFFEAFE1FA0E346
:102C20007F00A0E37EC0A0E350FEFFEA043096E5FB
:102C3000ADFFFFEA6801002070010020800800203D
:102C40005C010020500800207C080020780800204B
:102C50005405000010402DE908009FE5FCFCFFEB47
:102C60001040BDE81EFF2FE14008002010402DE974
:102C700008009FE5F7FCFFEB1040BDE81EFF2FE1C9
:102C800040080020F04F2DE961DF4DE22C108DE56A
:102C900030208DE50340A0E100B0A0E144308DE597
:102CA0008F0E00EB003090E50300A0E16C308DE565
:102CB0003D0F00EBC0A08DE268008DE50820A0E389
:102CC0000010A0E30A00A0E137FCFFEB00005BE38B
:102CD0000200000A34309BE5000053E30207000ABB
:102CE0002C209DE5643092E5010013E3FC20D2E145
:102CF0000100001A020C12E37E05000A020A12E328
:102D00002C109D05022A8203023AC303BC20C10194
:102D100064308105020A13E3D709001A2C209DE5CF
:102D2000FC30D2E1080013E33000000A102092E5E5
:102D3000000052E32D00000A1A2003E20A0052E3C9
:102D40003400000A0030A0E30040A0E303E0A0E16B
:102D5000D8308DE5D4308DE50030A0E3DC208DE265
:102D600060308DE564408DE5D0208DE528208DE52F
:102D700078E08DE574E08DE570E08DE580E08DE52F
:102D80007CE08DE534E08DE558E08DE530609DE533
:102D9000030000EAB0309DE5250053E3C000000ABF
:102DA000006086E0B43F9FE5E44093E5480E00EB09
:102DB0000620A0E10030A0E100A08DE50B00A0E11D
:102DC000B0108DE20FE0A0E114FF2FE1000050E30E
:102DD0002300000AEEFFFFAA0820A0E30010A0E3F2
:102DE0000A00A0E1F0FBFFEB0100A0E3EBFFFFEA2C
:102DF0002C509DE50B00A0E10510A0E1570D00EB64
:102E0000000050E3B00A001AFC30D5E11A2003E2BA
:102E10000A0052E3CAFFFF1A2C109DE5FE20D1E103
:102E2000000052E3C6FFFFBA642091E5010012E3FF
:102E30000100001A020C13E33408000A2C108DE282
:102E40000430A0E10B00A0E1060091E8CF0A00EBFE
:102E500034008DE534009DE561DF8DE2F04FBDE883
:102E60001EFF2FE130309DE5037056E00050A0E1D9
:102E70003607000A30309DE528209DE5880082E86D
:102E8000D4309DE5013083E2D4308DE5070053E373
:102E9000D8309DE5073083E0D8308DE5850000CA45
:102EA000083082E228308DE534309DE5000055E39E
:102EB000073083E034308DE52407000A0020A0E3CA
:102EC0000090E0E30130D6E5A720CDE53C208DE57C
:102ED0001C208DE5014086E2014084E2202043E28F
:102EE0005A0052E302F19F978D0000EA7C370008F8
:102EF0002431000824310008683700082431000814
:102F000024310008243100080C370008243100085F
:102F10002431000884300008883500082431000876
:102F200074350008AC3500082431000898350008D5
:102F30005830000858300008583000085830000851
:102F40005830000858300008583000085830000841
:102F500058300008243100082431000824310008CA
:102F600024310008243100082431000824310008ED
:102F7000E832000824310008F83300084C38000813
:102F8000E8320008E8320008E8320008243100087E
:102F900024310008243100082431000838380008A2
:102FA0002431000824310008943700082431000837
:102FB00024310008243100084C3400082431000872
:102FC000A43800082431000824310008884600088D
:102FD000243100082431000824310008243100087D
:102FE000243100082431000824310008243100086D
:102FF000E832000824310008F8330008EC340008F7
:10300000E8320008E8320008E8320008E03700083B
:10301000EC340008E4330008243100080C380008C0
:1030200024310008D4360008E8460008F8350008C6
:10303000E4330008243100084C3400089C300008B8
:10304000784600082431000824310008F4460008BE
:10305000243100089C300008302043E20030A0E317
:103060000310A0E10130D4E4011181E0811082E07D
:10307000302043E2090052E3F9FFFF9A3C108DE54E
:1030800095FFFFEA44309DE5042093E4000052E3FD
:103090003C208DE544308DE5320100BA0030D4E5A6
:1030A0008CFFFFEA30309DE5037056E00050A0E150
:1030B00081FFFF0A6EFFFFEA0B00A0E12C109DE5E7
:1030C000D0208DE2660A00EB000050E30800001AF1
:1030D000DC308DE228308DE572FFFFEA05B0A0E11B
:1030E00040309DE5000053E30B00A01140109D15FA
:1030F00030FCFF1B2C309DE5FC30D3E12C209DE5FE
:10310000642092E5010012E3AE00000A400013E3E0
:10311000E108001A34009DE561DF8DE2F04FBDE863
:103120001EFF2FE1000053E34C308DE530408DE56C
:103130008606000A0020A0E31C31CDE50130A0E3A3
:10314000471F8DE220308DE548108DE5A720CDE5A5
:1031500038308DE50290A0E140208DE55C208DE5C2
:1031600054208DE550208DE51C309DE5023013E2A2
:1031700020109D150210811220108D151C109DE548
:10318000844011E2D8509DE50400001A3C109DE5F2
:1031900020009DE5006041E0000056E3FE0200CA09
:1031A000000052E30D00000A0120A0E328109DE575
:1031B000042081E5D4209DE5012082E2D4208DE524
:1031C000015085E2070052E3A7208DE2D8508DE53B
:1031D000002081E5260300CA082081E228208DE531
:1031E000000053E30D00000A0230A0E328209DE513
:1031F000043082E5D4309DE5013083E2D4308DE5A2
:10320000025085E2070053E3A8308DE2D8508DE5E7
:10321000003082E5220300CA083082E228308DE5C2
:10322000800054E3F801000A38309DE5036049E06E
:10323000000056E32A0200CA1C309DE5010C13E38E
:10324000A601001A28209DE548309DE5003082E562
:1032500038309DE5035085E0043082E5D4309DE5AB
:10326000013083E2070053E3D8508DE5D4308DE57B
:10327000740200CA083082E228308DE51C309DE5DA
:10328000040013E30400000A3C309DE520209DE586
:10329000026043E0000056E30B0300CA34309DE5B2
:1032A0003C209DE520109DE5010052E1023083A005
:1032B000013083B0000055E334308DE55002001A30
:1032C00040309DE5000053E30030A0E3D4308DE5AD
:1032D0000B00A01140109D15B6FBFF1BDC308DE2EA
:1032E00028308DE5A8FEFFEA4C308DE544309DE5A1
:1032F000073083E20730C3E330408DE53000B3E8A8
:1033000044308DE50231C5E38C308DE588408DE594
:1033100088708DE2C00097E80020E0E30600A0E19D
:103320000710A0E1383A9FE560408DE564508DE5D7
:1033300097F6FFEB000050E34404001A0020E0E39E
:103340000600A0E10710A0E1143A9FE57EF6FFEB2E
:10335000000050E33D04001A0020A0E30030A0E389
:103360000400A0E10510A0E171F6FFEB000050E3BE
:103370002D20A013A720CD15A720DD050000A0E378
:1033800003C0A0E31C309DE58030C3E31C308DE515
:1033900040008DE520C08DE5C8199FE5C8399FE53F
:1033A0004CE09DE547005EE30310A0D10090A0E152
:1033B00048108DE538C08DE55C008DE554008DE545
:1033C00050008DE5BC0000EA020C13E34EFFFF1A2B
:1033D0002C409DE5580094E51EFBFFEBFC30D4E14A
:1033E00049FFFFEA1C309DE5203083E31C308DE56A
:1033F0000030D4E5B7FEFFEA4C308DE5430053E3DF
:1034000044309DE530408DE5045083E2E004000A3D
:103410001C309DE5100013E3DD04001A44309DE5E7
:10342000003093E51C31CDE50130A0E320308DE57F
:1034300038308DE5476F8DE20020A0E344508DE5E4
:1034400048608DE5A720CDE541FFFFEA4C308DE5D2
:103450000030A0E344609DE5A730CDE5043096E45C
:10346000000053E330408DE548308DE5B904000A93
:103470004C309DE5530053E33205000A1C309DE5B6
:10348000103013E250308DE52E05001A000059E38C
:103490008E0600BA0920A0E150109DE548009DE588
:1034A000C00C00EB003050E240308DE5D008000A3F
:1034B00048209DE540309DE5023043E07320A0E3C5
:1034C00038308DE544608DE550909DE54C208DE5CC
:1034D000C33FC3E1A720DDE520308DE55C908DE59D
:1034E00054908DE540908DE5730000EA4C308DE5F9
:1034F0001C309DE5200013E330408DE5DA00000A22
:1035000044309DE5073083E20730C3E30300A0E1C8
:10351000041093E50120A0E1083090E444008DE51B
:10352000000051E3B50300BA000059E3AD0200BA50
:103530001C109DE58010C1E31C108DE50110A01347
:103540000010A003020093E101108113000051E379
:10355000A402001A063D8DE20190A0E148308DE5FD
:1035600038108DE54A0000EA3C309DE5003063E20A
:103570003C308DE51C309DE5043083E31C308DE547
:103580000030D4E553FEFFEA2B30A0E3A730CDE5B1
:103590000030D4E54FFEFFEA1C309DE5803083E328
:1035A0001C308DE50030D4E54AFEFFEA0410A0E1AE
:1035B0000130D1E42A0053E3CD08000A302043E271
:1035C000090052E30140A0810090A08342FEFF8ADF
:1035D0000090A0E30130D1E4099189E0899082E074
:1035E000302043E2090052E3F9FFFF9A0140A0E1D5
:1035F000C99F89E138FEFFEA1C309DE5026083E344
:1036000068379FE5B83ACDE17830A0E30020A0E329
:103610000210A0E344009DE54C308DE564379FE542
:1036200078308DE5043090E430408DE544008DE540
:103630000000A0E3000059E3A700CDE5560100BA61
:10364000020083E1000050E30000590380C0C6E39C
:103650000100A0130000A0031CC08DE54D01001A5D
:10366000000051E34B02001A013016E238308DE5BC
:10367000063D8D020190A0E148308D050400000A4E
:103680003030A0E37F31CDE55F3F8DE2033083E250
:1036900048308DE538209DE5020059E10030A0E377
:1036A0000920A0A140308DE520208DE55C308DE51E
:1036B000A720DDE554308DE550308DE5000052E364
:1036C000A8FEFF0A20309DE5013083E220308DE521
:1036D000A4FEFFEA1C309DE5200013E330408DE599
:1036E0004C03000A44309DE534209DE5003093E50D
:1036F000002083E5C22FA0E1042083E544309DE54E
:10370000043083E244308DE59FFDFFEA0B00A0E129
:10371000F30B00EB043090E50300A0E17C308DE575
:10372000A10C00EB0050A0E180008DE50B00A0E1B2
:10373000EB0B00EB083090E5000055E3000053135D
:1037400070308DE554FEFF0A70309DE50030D3E502
:10375000000053E30030D4E51C209D15012B82139B
:103760001C208D15DBFDFFEA1C309DE5013083E355
:103770001C308DE50030D4E5D6FDFFEAA730DDE54D
:10378000000053E32020A0030030D4E5A720CD059E
:10379000D0FDFFEA4C308DE51C309DE5103083E311
:1037A00030408DE51C308DE51C309DE5202013E276
:1037B000C302000A44309DE5073083E20730C3E3CB
:1037C0000310A0E1042093E5083091E444108DE556
:1037D0001C109DE5016BC1E30010A0E393FFFFEA1D
:1037E0000030D4E5680053E31C309D051C209D1576
:1037F000023C8303402082131C308D051C208D1554
:103800000130D40501408402B2FDFFEA0030D4E566
:103810006C0053E31C309D051C209D152030830354
:10382000102082131C308D051C208D150130D4050D
:1038300001408402A7FDFFEA1C309DE5083083E3C8
:103840001C308DE50030D4E5A2FDFFEA4C308DE55B
:103850001C309DE5103083E31C308DE51C309DE568
:10386000200013E330408DE524FFFF1A1C309DE556
:1038700044209DE5100013E3043092E444208DE5DC
:10388000DA02001A1C209DE5400012E3D402000A6F
:103890000338A0E1C32FA0E10210A0E14338A0E16A
:1038A0001EFFFFEA4C308DE51C309DE530408DE574
:1038B000106083E3202016E27502000A44309DE583
:1038C000073083E20730C3E30300A0E1042093E55F
:1038D000083090E40110A0E344008DE553FFFFEAB7
:1038E0004C309DE5650053E3E00000DA0020A0E3E2
:1038F0000030A0E360108DE2030091E806F5FFEBD5
:10390000000050E3C401000A0130A0E328209DE537
:10391000043082E5D4309DE5013083E2D4308DE57A
:10392000070053E34C349FE5015085E2D8508DE504
:10393000003082E5F90300CA083082E228308DE5C4
:10394000AC309DE558209DE5020053E16F0200AACE
:1039500068309DE528209DE56C109DE5035085E0CD
:103960000A0082E8D4309DE5013083E2070053E38A
:10397000D8508DE5D4308DE56C0300CA083082E262
:1039800028308DE558309DE5016043E2000056E3A4
:1039900039FEFFDA100056E3D4309DE5AA0700DABD
:1039A00028208DE21070A0E3E8839FE5140092E8E0
:1039B000020000EA106046E2100056E3970000DAC9
:1039C000013083E2105085E2070053E3008082E576
:1039D000047082E5D8508DE5D4308DE5082082D280
:1039E000F3FFFFDA0410A0E10B00A0E1D0208DE28C
:1039F0001B0800EB000050E3B8FDFF1AD4308DE245
:103A0000280093E8DC208DE2E9FFFFEA3C309DE5E9
:103A100020209DE5026043E0000056E301FEFFDA4E
:103A2000100056E3D4309DE568839FD51D0000DA71
:103A300028208DE21040A0E358839FE5840092E89F
:103A4000020000EA106046E2100056E3140000DABB
:103A5000013083E2105085E2070053E3008082E5E5
:103A6000044082E5D8508DE5D4308DE5082082D21F
:103A7000F3FFFFDA0710A0E10B00A0E1D0208DE2F8
:103A8000F70700EB000050E394FDFF1A106046E2D8
:103A9000D4308DE2100056E3280093E8DC208DE25C
:103AA000EAFFFFCA28208DE528209DE5013083E24A
:103AB000065085E0070053E3008082E5046082E55C
:103AC000D4308DE5D8508DE50E0300CA083082E26F
:103AD00028308DE538309DE5036049E0000056E36D
:103AE000D4FDFFDA100056E328208DC21090A0C349
:103AF000A0829FE5D4309DE5140092C8030000CA5F
:103B0000180000EA106046E2100056E3140000DAE4
:103B1000013083E27C129FE5105085E2070053E3F9
:103B2000020282E8D8508DE5D4308DE5082082D29B
:103B3000F3FFFFDA0410A0E10B00A0E1D0208DE23A
:103B4000C70700EB000050E364FDFF1A106046E277
:103B5000D4308DE2100056E3280093E8DC208DE29B
:103B6000EAFFFFCA28208DE528209DE5013083E289
:103B7000065085E0070053E3008082E5046082E59B
:103B8000D4308DE5D8508DE5B70100CA083082E207
:103B900028308DE5A7FDFFEA0C60A0E1010051E3AC
:103BA0001101000A020051E3061D8DE2FE00000A29
:103BB00001C0A0E1A301A0E1071003E2823E80E181
:103BC000A221A0E1301081E2020093E10C00A0E10B
:103BD00001106CE5F6FFFF1A300051E30030A0033E
:103BE00001300612000053E348C08DE54103001A7E
:103BF000063D8DE20C3043E01C608DE538308DE5EC
:103C0000A3FEFFEA0B00A0E12C109DE5D0208DE281
:103C1000930700EB000050E3A8FDFF0A2FFDFFEA29
:103C200028208DE528209DE5013083E2065085E0BF
:103C3000070053E3008082E5046082E5D4308DE51F
:103C4000D8508DE58AFDFFDA0B00A0E12C109DE530
:103C5000D0208DE2820700EB000050E31FFDFF1A29
:103C6000DC308DE228308DE5D8509DE582FDFFEAFD
:103C700058309DE5D4609DE5010053E328309DE573
:103C8000015085E2016086E2087083E2420100DAB9
:103C900028209DE548309DE5003082E50130A0E315
:103CA000070056E3D8508DE5D4608DE5043082E5F9
:103CB000EE0200CA68309DE5016086E26C209DE559
:103CC000035085E0070056E30C0087E8D8508DE5E7
:103CD000D4608DE5087087D2DA0200CA58309DE5BD
:103CE0000020A0E360108DE2030091E8014043E270
:103CF0000030A0E308F4FFEB000050E33C01001AA1
:103D000048309DE5013083E2003087E5016086E2BE
:103D1000045085E0070056E3044087E5D8508DE560
:103D2000D4608DE5087087D2270100CA74309DE504
:103D3000016086E2055083E0043087E5070056E322
:103D4000B8308DE2D4608DE5D8508DE5003087E540
:103D5000BCFFFFCA083087E228308DE546FDFFEA48
:103D600070050020FFFFEF7F84B3000880B30008D8
:103D70003078000038B50008C0B3000800003040BB
:103D80000000E03FA4B3000890B30008B8B30008F7
:103D9000CCCCCCCCCDCCCCCC28B50008100056E394
:103DA000D4209DE538801FD5240000DA40801FE52F
:103DB0000500A0E11070A0E30850A0E184308DE57B
:103DC0000480A0E128109DE52C409DE5020000EA5A
:103DD000106046E2100056E3130000DA012082E290
:103DE000100080E2070052E3A00081E8D8008DE5D2
:103DF000D4208DE5081081D2F4FFFFDA0410A0E191
:103E00000B00A0E1D0208DE2150700EB000050E38D
:103E1000B2FCFF1A106046E2100056E3D8009DE5A0
:103E2000D4209DE5DC108DE2EBFFFFCA0840A0E145
:103E30000580A0E10050A0E184309DE528108DE5CB
:103E400028109DE5012082E2065085E0070052E33C
:103E5000008081E5046081E5D4208DE5D8508DE5B2
:103E60008C0200CA082081E228208DE5A720DDE52C
:103E7000CAFCFFEA0B00A0E12C109DE5D0208DE2EA
:103E800084308DE5F60600EB000050E393FCFF1A4A
:103E9000DC308DE228308DE5D8509DE584309DE5FD
:103EA000CEFCFFEA0B00A0E12C109DE5D0208DE2B6
:103EB000EB0600EB000050E388FCFF1ADC308DE2DB
:103EC00028308DE5D8509DE5D4FCFFEA100056E37C
:103ED000D4309DE568811FD51D0000DA28208DE2D1
:103EE0001070A0E378811FE5140092E8020000EA58
:103EF000106046E2100056E3140000DA013083E25D
:103F0000105085E2070053E3008082E5047082E5EB
:103F1000D8508DE5D4308DE5082082D2F3FFFFDA4A
:103F20000410A0E10B00A0E1D0208DE2CC0600EB54
:103F3000000050E369FCFF1A106046E2D4308DE2C5
:103F4000100056E3280093E8DC208DE2EAFFFFCA68
:103F500028208DE528209DE5013083E2065085E08C
:103F6000070053E3008082E5046082E5D4308DE5EC
:103F7000D8508DE5C8FCFFDA0B00A0E12C109DE5C0
:103F8000D0208DE2B60600EB000050E353FCFF1A90
:103F9000D8509DE5C0FCFFEA063D8DE20090A0E10F
:103FA00048308DE538008DE5B9FDFFEA78C09DE524
:103FB0000F0003E20000DCE72332A0E1023E83E1D0
:103FC0002222A0E1010061E5020093E1F7FFFF1A60
:103FD000063D8DE2013043E048108DE51C608DE523
:103FE00038308DE5AAFDFFEA1C609DE50A0053E329
:103FF0000010D2E29702002A303083E27F31CDE513
:104000000130A0E338308DE55F3F8DE2033083E27D
:104010001C608DE548308DE59DFDFFEAAC609DE5B7
:10402000000056E3BD0000DA50309DE558209DE5C4
:10403000020053E10370A0B10270A0A1000057E399
:104040000B0000DA48309DE528209DE5880082E8D5
:10405000D4309DE5013083E2075085E0070053E34B
:10406000D8508DE5D4308DE5BB0400CA083082E21B
:1040700028308DE550609DE5000057E3076046A0BD
:10408000000056E3C10200CA1C309DE550209DE5AA
:10409000010B13E348309DE5023083E00380A0E18B
:1040A000DE03001AAC609DE558309DE5030056E143
:1040B000C90100BA1C309DE5010013E3C601001AD6
:1040C00058309DE548209DE5037082E0087047E088
:1040D000066043E0060057E10670A0A1000057E328
:1040E0000B0000DAD4309DE528209DE5013083E205
:1040F000075085E0070053E3008082E5047082E505
:10410000D8508DE5D4308DE5E90400CA083082E24C
:1041100028308DE5000057E3076046A0000056E315
:1041200055FCFFDA100056E3D4309DE5C60500DAF1
:1041300028208DE21070A0E3A8831FE5140092E808
:10414000020000EA106046E2100056E3B3FEFFDA18
:10415000013083E2105085E2070053E3008082E5DE
:10416000047082E5D8508DE5D4308DE5082082D2E8
:10417000F3FFFFDA0410A0E10B00A0E1D0208DE2F4
:10418000370600EB000050E3D4FBFF1AD4308DE279
:10419000280093E8DC208DE2E9FFFFEA1C309DE572
:1041A000010013E3B9FEFF1A28209DE548309DE584
:1041B000003082E50130A0E3070056E3D8508DE5DA
:1041C000D4608DE5043082E5D7FEFFDA0B00A0E174
:1041D0002C109DE5D0208DE2210600EB000050E37D
:1041E000BEFBFF1AD8509DE5D4609DE5DC708DE2E2
:1041F000CDFEFFEA58309DE5010053E3CAFEFFDA29
:10420000110053E374841FD55D0200DA1090A0E31F
:1042100080841FE5020000EA104044E2100054E3ED
:10422000570200DA016086E2105085E2070056E38B
:10423000000387E8D8508DE5D4608DE5087087D2FB
:10424000F4FFFFDA0B00A0E12C109DE5D0208DE2F9
:10425000030600EB000050E3A0FBFF1AD8509DE5D9
:10426000D4609DE5DC708DE2EAFFFFEA0B00A0E17F
:104270002C109DE5D0208DE2F90500EB000050E305
:1042800096FBFF1ADC308DE228308DE5D8509DE595
:10429000E8FBFFEA44009DE5043090E4101016E2CC
:1042A00044008DE54C00001A400016E24700000A69
:1042B0000338A0E10120A0E12338A0E10110A0E330
:1042C000DAFCFFEA1C309DE544009DE5101013E286
:1042D000043090E444008DE53CFDFF1A1C209DE570
:1042E000400012E24D02000A0338A0E10120A0E1E3
:1042F0002338A0E135FDFFEA2C509DE5580095E5F7
:1043000053F7FFEBFC20D5E1643095E57AFAFFEA3C
:104310001C309DE5010013E3D7FBFF0A8BFDFFEA8C
:104320000130A0E328209DE5043082E5D4309DE5EE
:10433000013083E2D4308DE5070053E3CC351FE52F
:10434000015085E2D8508DE5003082E5D60300CAE1
:10435000083082E228308DE558309DE5063093E143
:104360001304000A68309DE528209DE56C109DE54A
:10437000055083E00A0082E8D4309DE5013083E2F5
:10438000070053E3D8508DE5D4308DE5084082D244
:10439000160400CA000056E3AC0400BA48209DE5AC
:1043A000002084E558209DE5013083E2055082E03D
:1043B000070053E3D4308DE5042084E5D8508DE523
:1043C00020FEFFCA083084E228308DE5AAFBFFEA10
:1043D000022C16E20020A011FF3003120110A0E30E
:1043E00092FCFFEA1C209DE5020C12E3AD02001ACC
:1043F000C32FA0E10210A0E1000051E349FCFFAA95
:10440000003073E22D00A0E30110A0E31C609DE5E5
:104410000020E2E286FCFFEA1C309DE5100013E379
:10442000D201001A1C309DE5400013E3A202001ADD
:104430001C309DE5020C13E3CC01000A44309DE5DD
:1044400034209DE5003093E50020C3E5AAFCFFEA97
:1044500060108DE2030091E80020A0E10130A0E1AE
:104460004BF2FFEB000050E3BF04001A4C309DE517
:104470002060C3E3410056E3ED01001A610053E3FD
:104480005830A0137830A003A930CDE53030A0E338
:10449000630059E3A830CDE5473F8DD240008DD56C
:1044A00048308DD5AD0200CA60208DE2060092E84A
:1044B000000052E3980200AA0240A0E12D20A0E3F0
:1044C000023184E298108DE584208DE59C308DE5E5
:1044D000AC208DE298108DE2030091E84A0900EBD0
:1044E0000020A0E3FF35A0E3B1F0FFEB0130A0E135
:1044F0000020A0E120208DE524308DE50030A0E3F0
:104500000020A0E304F2FFEB000050E30130A01311
:104510004C109DE5AC308D1598371FE5610051E3D7
:10452000A4271FE50320A001015049E20580A0E176
:1045300050B08DE538208DE502B0A0E148609DE5E2
:1045400020508DE2300095E8050000EA0020A0E34D
:104550000030A0E3F0F1FFEB000050E39804001AF4
:104560000780A0E10020A0E3F4371FE50400A0E1EC
:104570000510A0E18EF0FFEB0150A0E10040A0E1AA
:1045800011F2FFEB0090A0E150F0FFEB0020A0E162
:104590000130A0E10400A0E10510A0E17DEFFFEBF8
:1045A0000930DBE7010078E30620A0E10040A0E14C
:1045B0000150A0E10130C6E4017048E2E2FFFF1AB9
:1045C0000270A0E14C381FE50020A0E320408DE5FB
:1045D00024508DE5E8F1FFEB000050E350B09DE57D
:1045E0009B04000A38309DE5C8708DE50F10D3E5B7
:1045F000012056E5020051E10630A0E10700001A53
:104600003000A0E3010043E5C8309DE5012043E20E
:10461000C8208DE5012053E5020051E1F8FFFF0AB3
:10462000390052E338209D05012082120A20D2056C
:10463000FF200212012043E50630A0E11C209DE589
:10464000022082E31C208DE548209DE5023043E0F6
:1046500058308DE54C209DE5AC309DE50F2082E281
:1046600050308DE5013043E20110A0E3AC308DE520
:10467000FF2002E2BE0100EA4C308DE530408DE5BE
:104680001C609DE58AFCFFEA4C308DE510391FE582
:1046900030408DE578308DE51C309DE5202013E21B
:1046A0005B00000A44309DE5073083E20730C3E336
:1046B0000310A0E1042093E5083091E444108DE557
:1046C000021093E11C109DE50010A00301100112DF
:1046D000000051E37C00001A1C109DE5016BC1E352
:1046E0000210A0E3D1FBFFEA4C308DE530408DE5B0
:1046F0002CFCFFEA4C308DE578391FE530408DE524
:1047000078308DE5E3FFFFEA0B00A0E12C109DE57A
:10471000D0208DE2D20400EB000050E36FFAFF1AC4
:10472000DC308DE228308DE5D8509DE5BDFAFFEAFA
:104730000B00A0E12C109DE5D0208DE2C80400EB19
:10474000000050E365FAFF1ADC308DE228308DE579
:10475000D8509DE58AFCFFEA060059E30930A031F4
:104760000630A02348209DE5E4191FE50290A0E152
:1047700020308DE544608DE540208DE548108DE5C5
:1047800038308DE55C208DE554208DE550208DE599
:10479000C9FBFFEA0820A0E30010A0E3C8008DE2F7
:1047A00081F5FFEB44209DE5476F8DE20610A0E107
:1047B0000B00A0E1002092E5C8308DE2381300EB39
:1047C000010070E338008DE55204000A38309DE5A1
:1047D000C33FC3E120308DE516FBFFEA68309DE55D
:1047E00028209DE56C109DE5035085E00A0082E8D5
:1047F000D4309DE5013083E2070053E3D8508DE5C6
:10480000D4308DE5040300CA083082E228308DE5FB
:104810002AFEFFEA1C309DE544009DE5101013E2DE
:10482000043090E444008DE5A4FFFF1A1C209DE5B0
:10483000400012E2F400000A0338A0E10120A0E1E8
:104840002338A0E19DFFFFEA0B00A0E12C109DE5BD
:10485000D0208DE2820400EB000050E31FFAFF1A23
:10486000D8509DE5D4609DE5DC708DE21AFDFFEA2D
:104870000B00A0E12C109DE5D0208DE2780400EB28
:10488000000050E315FAFF1AD8509DE5D4609DE56D
:10489000DC708DE206FDFFEA0B00A0E12C109DE527
:1048A000D0208DE284308DE56D0400EB000050E3F4
:1048B0000AFAFF1ADC308DE228308DE5A720DDE50D
:1048C000D8509DE584309DE534FAFFEA4C109DE513
:1048D000A910CDE51C109DE5021081E31C108DE5AB
:1048E0003010A0E3A810CDE57AFFFFEA0B00A0E1AD
:1048F000A6F4FFEBF9F8FFEA3030A0E348209DE58D
:10490000020040E2013042E5063D8DE2003043E026
:104910001C608DE538308DE548008DE55CFBFFEAD5
:104920000B00A0E12C109DE5D0208DE24C0400EBA3
:10493000000050E3E9F9FF1ADC308DE228308DE504
:10494000D8509DE5FDFBFFEA48309DE5C8408DE26B
:104950000820A0E30010A0E30400A0E1B4308DE53E
:1049600011F5FFEB000059E3A00100BA0050A0E3ED
:104970000570A0E10B0000EA0430A0E10B00A0E10B
:10498000471F8DE2C61200EB010070E3045085E280
:10499000000087E06C03000A090050E1050000CA2E
:1049A0009103000A0070A0E1B4309DE5052093E773
:1049B000000052E3EFFFFF1A38708DE538309DE5B7
:1049C000000053E34302000A630053E31A0300DAD2
:1049D000011083E20B00A0E1B0F6FFEB003050E2E3
:1049E00048308DE5D703000A48309DE540308DE51D
:1049F0000820A0E30010A0E30400A0E1EAF4FFEB2C
:104A000000408DE538409DE50B00A0E10430A0E1B9
:104A100048109DE5B4208DE2B81200EB000054E18F
:104A2000C403001A0030A0E338209DE5C21FC2E194
:104A300020108DE548109DE50230C1E70390A0E10C
:104A400044608DE5A720DDE55C308DE554308DE5D3
:104A500050308DE518FBFFEA0010A0E320908DE5B3
:104A60001C608DE50190A0E138B08DE5065D8DE21A
:104A7000017B06E2050000EA0A0053E30020D2E2CF
:104A80002A00003A0630A0E10420A0E10850A0E18D
:104A9000021093E008CD1FE50010A1E2910C8CE01C
:104AA0000300CCE32C0180E0001041E0240D1FE561
:104AB00001C053E09C0000E005B0A0E3304D1FE5CD
:104AC0009C648EE000C0C2E29C0424E00E0084E0FE
:104AD00001E006E29ECB84E001C09CE0A660A0E17C
:104AE00030C08CE2000057E301C045E5019089E247
:104AF000018045E2806F86E1A040A0E1DDFFFF0A72
:104B000070109DE50010D1E509C041E000007CE295
:104B10000C00A0E0FF0051E30000A003000050E300
:104B2000D4FFFF0A0A0053E30020D2E24502002A24
:104B3000063D8DE2083043E058908DE538B09DE5A4
:104B400048808DE520909DE538308DE5D0FAFFEA6C
:104B5000D8309DE5000053E3E500001A0020A0E3F3
:104B60002C309DE5D4208DE5FC30D3E162F9FFEADD
:104B700044309DE534209DE5003093E5002083E539
:104B8000DDFAFFEA008087E5016086E25FFCFFEA6C
:104B9000100056E3D4309DE5088E1FD5B50000DA2D
:104BA00028208DE21070A0E3188E1FE5140092E813
:104BB000020000EA106046E2100056E3AC0000DAA2
:104BC000013083E2105085E2070053E3008082E564
:104BD000047082E5D8508DE5D4308DE5082082D26E
:104BE000F3FFFFDA0410A0E10B00A0E1D0208DE27A
:104BF0009B0300EB000050E338F9FF1AD4308DE23C
:104C0000280093E8DC208DE2E9FFFFEA1C209DE507
:104C1000022C12E20020A011FF300312A7FEFFEACF
:104C20001C209DE5022C12E20020A011FF3003128F
:104C3000E6FAFFEA010079E30690A0030200000A09
:104C4000470056E3000059030190A00360208DE265
:104C5000060092E81C309DE5000052E3014C83E31E
:104C6000C70000BA0030A0E390108DE594208DE5D8
:104C700084308DE54C309DE5650053E30902000A60
:104C80009E0100CA450053E30602000A460053E3B2
:104C90009D01001A0970A0E10330A0E388008DE8AF
:104CA000C8308DE210308DE5B4308DE20C308DE5EA
:104CB000AC308DE208308DE50B00A0E190308DE244
:104CC0000C0093E81D0800EB460056E348008DE514
:104CD000075080E00500001A48309DE50030D3E51C
:104CE000300053E3FF01000AAC309DE5035085E03E
:104CF0000020A0E30030A0E390108DE2030091E8D3
:104D000005F0FFEB000050E33602001AC8309DE5C5
:104D1000050053E10600002A3010A0E3012083E2E1
:104D2000C8208DE50010C3E5C8309DE5030055E1BE
:104D3000F9FFFF8AAC209DE550208DE548209DE5D8
:104D4000470056E3023043E058308DE59A00000AF0
:104D5000460056E350309D1501304312EE01000A23
:104D60000010A0E34C209DE5AC308DE540108DE5B2
:104D7000FF2002E2000053E3B820CDE52D20A0B3D0
:104D80002B20A0A350309DB5013063B2090053E33E
:104D9000B920CDE54A0200DACF008DE20020A0E183
:104DA000D4CB9FE50210A0E19CE382E0A221A0E128
:104DB00002E182E0630053E38E3043E0303083E26F
:104DC000013041E50230A0E1012041E2F4FFFFCAD9
:104DD000303083E2013042E5023041E2000053E12D
:104DE000A502002AB9208DE201C0D3E4000053E1FE
:104DF00001C0E2E5FBFFFF1A063D8DE2011043E032
:104E0000AD3041E274308DE558309DE574209DE56C
:104E1000010053E3023083E038308DE5460200DACA
:104E200038309DE568209DE5023083E038308DE51F
:104E30001C309DE5013BC3E3013C83E31C308DE561
:104E40000030A0E338209DE5C22FC2E15C308DE543
:104E500020208DE554308DE550308DE584309DE582
:104E6000000053E35D00001A0390A0E1A720DDE5F8
:104E700011FAFFEA28208DE528209DE5013083E224
:104E8000065085E0070053E3008082E5046082E578
:104E9000D4308DE5D8508DE5260000CA083082E276
:104EA00028308DE577FCFFEA033CA0E1C32FA0E1A9
:104EB0000210A0E1433CA0E198F9FFEA44309DE5EF
:104EC00034209DE5003093E5B020C3E10AFAFFEA03
:104ED00048009DE5B40600EB7330A0E344608DE527
:104EE0004C308DE538008DE50030A0E150909DE517
:104EF00076F9FFEA0B00A0E12C109DE5D0208DE2B1
:104F0000D70200EB000050E313FFFF0A78F8FFEA36
:104F1000580091E54FF4FFEBC7F7FFEA0030A0E33C
:104F200084308DE560408DE2180094E898308DE57E
:104F30009C408DE565FDFFEA0B00A0E12C109DE58E
:104F4000D0208DE2C60200EB000050E363F8FF1AA8
:104F5000DC308DE228308DE5D8509DE549FCFFEA34
:104F60000B00A0E1011089E24CF5FFEB003050E2AC
:104F700048308DE56702000A48309DE540308DE5F8
:104F800048FDFFEA2D10A0E360308DE20C0093E8AD
:104F9000023183E290208DE584108DE594308DE51B
:104FA00033FFFFEAC8309DE548209DE5023043E02D
:104FB00058308DE5AC309DE550308DE550309DE5A5
:104FC000030073E3030059A19B0000AA4C209DE558
:104FD000022042E24C208DE5013043E25FFFFFEA10
:104FE0002D20A0E30090A0E3A720CDE5B4F9FFEACF
:104FF0000030A0E30B00A0E10310A0E100408DE52C
:10500000B4208DE23D1100EB010070E338008DE526
:10501000CD01000A48309DE5B4308DE566FEFFEA1B
:105020005C009DE554309DE5000053E3000050D343
:105030004D0200DA48309DE558209DE5024083E0AE
:105040000510A0E10430A0E138B08DE50040A0E1FA
:1050500028999FE528209DE570509DE580B09DE54D
:10506000040000EA008088E054009DE5000054E35D
:10507000000050D3EB0100DA000054E354009DD54A
:10508000010040D254008DD57C009DE5010882E8E6
:10509000D4009DE5010080E2014044C2015045D2A8
:1050A0000B1081E0070050E3D8108DE5D4008DE5AA
:1050B000082082D2390000CA0000D5E5087043E01C
:1050C000000057E10070A0A1000057E328308DE5F3
:1050D0000A0000DAD4009DE5010080E2071081E0BB
:1050E000070050E3008082E5047082E5D8108DE56A
:1050F000D4008DE5440000CA0000D5E5082082E216
:10510000000057E30060A0B1076040A0000056E334
:10511000D3FFFFDA100056E3D4009DE55CC89FD5AD
:105120002E0000DA4C508DE550408DE51070A0E364
:105130000640A0E138509DE52C609DE55C908DE532
:1051400070308DE5020000EA104044E2100054E3A4
:105150001D0000DA010080E2101081E2070050E338
:10516000009082E5047082E5D8108DE5D4008DE5CD
:10517000082082D2F3FFFFDA0610A0E10500A0E1CB
:10518000D0208DE2360200EB000050E3D2F7FF1A88
:10519000D4008DE2030090E8DC208DE2E9FFFFEA15
:1051A0002C109DE538009DE5D0208DE228308DE55E
:1051B0002B0200EB000050E3D401001AD8109DE54B
:1051C00028309DE5DC208DE2BAFFFFEA0460A0E113
:1051D0004C509DE550409DE55CC09DE570309DE5DF
:1051E000010080E2061081E0070050E300C082E584
:1051F000046082E5D4008DE5D8108DE5600000CA1A
:105200000000D5E5082082E295FFFFEA2C109DE51D
:1052100038009DE5D0208DE24C308DE5100200EB8A
:10522000000050E3B901001A0000D5E5D8109DE553
:105230004C309DE5DC208DE2B0FFFFEA58309DE563
:1052400050209DE5020053E1EA0000CA1C309DE5B4
:10525000010013E350309DE538308D0568209D1521
:105260000230831038308D151C309DE5010B13E39F
:105270006901000A50309DE5000053E36730A0E368
:105280004C308DE5B30000CA38309DE5C33FC3E123
:1052900020308DE50030A0E31C408DE540308DE5E9
:1052A0005C308DE554308DE5EBFEFFEA0B00A0E1AC
:1052B0002C109DE5D0208DE2E90100EB000050E3C9
:1052C00086F7FF1ADC308DE228308DE5D8509DE559
:1052D000AC609DE51FFCFFEA38309DE544608DE53C
:1052E0000390A0E120308DE55C308DE554308DE5F4
:1052F00050308DE540308DE5A720DDE5EEF8FFEA82
:105300004C309DE5660053E361FEFF0A0230A0E3E6
:1053100000308DE5C8308DE210308DE5B4308DE27F
:105320000C308DE5AC308DE208308DE50B00A0E14E
:1053300090308DE20C0093E804908DE57F0600EB41
:105340001C309DE5010013E348008DE514FFFF0AC2
:1053500048309DE5095083E064FEFFEA0B00A0E1C0
:105360002C109DE5D0208DE2BD0100EB000050E344
:105370005AF7FF1ADC308DE228308DE5D8509DE5D4
:105380003BFBFFEA2C109DE538009DE5D0208DE227
:105390004C308DE5B20100EB000050E35B01001AD8
:1053A0000000D5E5D8109DE54C309DE5DC208DE270
:1053B0002BFFFFEA1C309DE5010013E3AEF7FF0A67
:1053C00068309DE528209DE56C109DE5055083E043
:1053D0000A0082E8D4309DE5013083E2070053E300
:1053E000D8508DE5D4308DE5084082D2EAFBFFDA53
:1053F0000B00A0E12C109DE5D0208DE2980100EB80
:10540000000050E335F7FF1AD4308DE2AC609DE523
:10541000280093E8DC408DE2DDFBFFEA0B00A0E111
:105420002C109DE5D0208DE28D0100EB000050E3B3
:105430002AF7FF1ADC308DE228308DE5AC609DE55F
:10544000D8509DE51DFBFFEA80309DE5038048E0D4
:105450000320A0E10800A0E17C109DE5680400EBBA
:1054600070209DE50130D2E5000053E30130821247
:105470000090A0E370308D1581FDFFEA010013E379
:105480000500001A2C309DE5BC30D3E1020C13E37B
:105490002C309D0558009305EEF2FF0B0030E0E341
:1054A00034308DE51AF7FFEA0230A0E3017089E29B
:1054B000F9FDFFEA0B00A0E12C109DE5D0208DE264
:1054C000670100EB000050E304F7FF1ADC308DE2C7
:1054D00028308DE5AC609DE558309DE5D8509DE5C0
:1054E000066043E00AFBFFEA0020A0E30030A0E3EF
:1054F00090108DE2030091E807EEFFEB000050E30F
:105500000901000AAC309DE5035085E050308DE57F
:1055100048309DE5033045E058308DE550209DE54D
:105520001C309DE5000052E3013003E2093083E1C5
:10553000D40000DA000053E39A00001A50309DE5D1
:1055400038308DE56630A0E34C308DE51C309DE5AC
:10555000010B13E34BFFFF0A70109DE50030D1E50E
:10556000FF0053E3FC00000A00C0A0E350209DE5CB
:105570000C00A0E1080000EA032042E00130D1E580
:10558000000053E30030D1050100801201108112A8
:1055900001C08C02FF0053E30100000A020053E146
:1055A000F4FFFFBA70108DE554008DE55CC08DE509
:1055B00050208DE554209DE55C309DE538109DE53B
:1055C000023083E080209DE5931222E00030A0E3CA
:1055D00040308DE5C23FC2E11C408DE538208DE5AD
:1055E00020308DE51CFEFFEAAC209DE50530A0E1F2
:1055F00050208DE5D0FDFFEA50309DE5000053E3DB
:105600006730A0C358209DE568109DE5012082E029
:1056100038208DE54C308DC5CBFFFFCA013063E2E9
:10562000033082E06720A0E338308DE5C33FC3E15B
:105630004C208DE520308DE515FFFFEA0030A0E31A
:1056400040308DE5473F8DE248308DE5E7FCFFEACD
:10565000100076E324839FA5006066E2230000AA81
:105660001070A0E314839FE5020000EA106046E298
:10567000100056E31D0000DA013083E2105085E28D
:10568000070053E3008084E5047084E5D8508DE57D
:10569000D4308DE5084084D2F3FFFFDA0B00A0E19F
:1056A0002C109DE5D0208DE2ED0000EB000050E3D2
:1056B0008AF6FF1AD4308DE2280093E8DC408DE2B0
:1056C000E9FFFFEA000051E33020A003BA208D1269
:1056D000BA20CD05303083E2BB208D020130C2E418
:1056E000B8308DE2033042E074308DE5C5FDFFEA4D
:1056F000013083E2065085E0070053E3008084E533
:10570000046084E5D8508DE5D4308DE5084084D21E
:1057100021FBFFDA0B00A0E12C109DE5D0208DE2EB
:10572000CF0000EB000050E36CF6FF1AD4308DE29E
:10573000280093E8DC408DE217FBFFEA1C309DE572
:10574000010013E3B9FDFF0AB4FDFFEA0020A0E366
:105750002C309DE5FC30D3E140208DE5403083E3E3
:105760002C209DE5BC30C2E15CF6FFEA64309DE58B
:10577000000053E32D20A0B30000A0E303C0A0E38A
:105780001C309DE58030C3E31C308DE5A720DDA5EE
:10579000A720CDB540008DE520C08DE5E0119FE547
:1057A000E0319FE5FDF6FFEA68309DE5037089E092
:1057B000023087E038308DE56630A0E34C308DE56F
:1057C00061FFFFEA000058E3013088A23020A0A367
:1057D00050B09DE5033086A096FBFFBA0120C6E4D9
:1057E000060053E1FCFFFF1A93FBFFEA38908DE5BA
:1057F00071FCFFEA7330A0E320908DE538908DE5D1
:1058000044608DE50090A0E14C308DE5A720DDE5FA
:105810005C008DE554008DE5A7F7FFEA6730A0E353
:105820004C308DE597FEFFEA70508DE50150A0E108
:1058300028309DE538B09DE528208DE5030058E12E
:105840000830A0310380A0E115FAFFEA2C819FE522
:10585000F3F8FFEA0020A0E320108DE2030091E8B6
:1058600024319FE52CEDFFEB000050E371FBFF0AB4
:10587000010019E36FFBFF0A59FBFFEA0230A0E3C6
:1058800074308DE55FFDFFEA000053E30500001A68
:105890000130A0E36620A0E320308DE54C208DE5AB
:1058A00038308DE57AFEFFEA6620A0E368309DE59A
:1058B000017083E2093087E038308DE5C33FC3E1F2
:1058C0004C208DE520308DE571FEFFEA2C209DE512
:1058D000643092E5010013E3EFFEFF1ABC30D2E121
:1058E000020C13E3ECFEFF1A580092E5D9F1FFEB2E
:1058F000E9FEFFEA44209DE5049092E40130D4E5FE
:1059000044208DE50140A0E1C99F89E171F5FFEADE
:1059100038B09DE5F1F5FFEA2C209DE5FC30D2E1A1
:10592000403083E3BC30C2E1F3F5FFEA013067E2C7
:10593000AC308DE5ECFCFFEA2C309DE5FC30D3E18A
:10594000403083E385FFFFEA2C309DE5FC30D3E156
:1059500040008DE5403083E380FFFFEA0030A0E3A4
:105960005C308DE554308DE511FFFFEA48309DE550
:1059700058209DE5023083E0AFFFFFEACDCCCCCCD0
:1059800028B500088CB3000888B300080000E03F89
:10599000F0412DE946DE4DE208D04DE20D70A0E168
:1059A00001CBA0E300E0A0E30250A0E10060A0E191
:1059B0000380A0E168308DE200308DE510308DE588
:1059C000BC30D1E10230C3E3BC30C7E1643091E5C3
:1059D00064308DE5BE30D1E1BE30C7E11C3091E5C9
:1059E0001C308DE5243091E558008DE20140A0E1A6
:1059F00018E08DE508C08DE514C08DE524308DE5F7
:105A000091F1FFEB0520A0E10830A0E10710A0E133
:105A10000600A0E19AF4FFEB005050E2040000BA47
:105A20000710A0E10600A0E1F30000EB000050E346
:105A30000050E013BC30DDE1400013E3BC30D41172
:105A40004030831358009DE5BC30C4117FF1FFEB5B
:105A50000500A0E146DE8DE208D08DE2F041BDE810
:105A60001EFF2FE1083092E5000053E310402DE9BE
:105A70000300A0010240A0E10200000A050100EBC2
:105A80000030A0E3083084E50030A0E3043084E572
:105A90001040BDE81EFF2FE170402DE9004051E2AB
:105AA0003900000A000050E30050A0E10200000AA3
:105AB000343090E5000053E33700000A643094E589
:105AC000010013E3FC20D4E12D00001A020C12E3C4
:105AD0003300000A0410A0E10500A0E1420000EB41
